:100000001DC037C036C035C043C033C032C031C058
:1000100030C02FC02EC02DC02CC02BC02AC029C07C
:1000200028C027C026C025C024C023C022C021C0AC
:1000300020C01FC01EC01DC01CC01BC011241FBE7D
:10004000CFEFD1E0DEBFCDBF11E0A0E0B1E0E8E34B
:10005000F2E002C005900D92A230B107D9F721E07D
:10006000A2E0B1E001C01D92A330B207E1F7BBD01E
:10007000E1C0C6CFE0E7F0E080818E7F808380E43E
:100080008AB984E08BB981E28A95F1F7000008957E
:100090001F920F920FB60F9211242F933F934F93FD
:1000A0005F936F937F938F939F93AF93BF93EF93E0
:1000B000FF9381B5806481BD8BB380678BBB8BB3AD
:1000C00080678BBBD7DF43E049B900000000000028
:1000D0002AB120728BE089B90000000000003AB11B
:1000E000307289B39091700091609093700090E8A5
:1000F0009AB99BB39F789BBB909102019230B9F063
:1001000028F4992351F09130B1F051C0943009F4A2
:1001100042C038F19530A9F14AC09091000199236D
:1001200041F087FF46C091509093000142C02223C6
:1001300061F081E023C021113CC08095881F882791
:10014000881F8E5F8093020124C090910001992343
:1001500081F191509093000187FD2BC040930201E3
:1001600018C02111E6CF87FF14C0809100018823B9
:1001700021F08150809300011CC085E08093020132
:1001800018C02111D6CF311114C084E08093020130
:10019000D79A88E0EFCF332321F085E080930201E6
:1001A00004C0809100018111E4CFD79802C0D79894
:1001B000FFCF9BB38091020187708295807F9F78EB
:1001C000892B8BBBFF91EF91BF91AF919F918F9145
:1001D0007F916F915F914F913F912F910F900FBE43
:1001E0000F901F90189584B7877F84BFF89481B5CE
:1001F000886481BD83E081BD81B5806481BD8AB39F
:1002000080678ABBD798DF9885B7877E806185BF76
:10021000809170008FEF809370008FE78093600073
:10022000109261001092020185B7806285BF7894B8
:080230008895FECFF894FFCF82
:020238000800BC
:00000001FF
